{
  "_format": "hh-sol-artifact-1",
  "contractName": "NFTMint",
  "sourceName": "src/contracts/NFTMint.sol",
  "abi": [
    {
      "inputs": [
        {
          "internalType": "string",
          "name": "_name",
          "type": "string"
        },
        {
          "internalType": "string",
          "name": "_symbol",
          "type": "string"
        },
        {
          "internalType": "string",
          "name": "_initBaseURI",
          "type": "string"
        }
      ],
      "stateMutability": "nonpayable",
      "type": "constructor"
    },
    {
      "anonymous": false,
      "inputs": [
        {
          "indexed": true,
          "internalType": "address",
          "name": "owner",
          "type": "address"
        },
        {
          "indexed": true,
          "internalType": "address",
          "name": "approved",
          "type": "address"
        },
        {
          "indexed": true,
          "internalType": "uint256",
          "name": "tokenId",
          "type": "uint256"
        }
      ],
      "name": "Approval",
      "type": "event"
    },
    {
      "anonymous": false,
      "inputs": [
        {
          "indexed": true,
          "internalType": "address",
          "name": "owner",
          "type": "address"
        },
        {
          "indexed": true,
          "internalType": "address",
          "name": "operator",
          "type": "address"
        },
        {
          "indexed": false,
          "internalType": "bool",
          "name": "approved",
          "type": "bool"
        }
      ],
      "name": "ApprovalForAll",
      "type": "event"
    },
    {
      "anonymous": false,
      "inputs": [
        {
          "indexed": true,
          "internalType": "address",
          "name": "previousOwner",
          "type": "address"
        },
        {
          "indexed": true,
          "internalType": "address",
          "name": "newOwner",
          "type": "address"
        }
      ],
      "name": "OwnershipTransferred",
      "type": "event"
    },
    {
      "anonymous": false,
      "inputs": [
        {
          "indexed": false,
          "internalType": "uint256",
          "name": "id",
          "type": "uint256"
        },
        {
          "indexed": true,
          "internalType": "address",
          "name": "buyer",
          "type": "address"
        },
        {
          "indexed": false,
          "internalType": "uint256",
          "name": "cost",
          "type": "uint256"
        },
        {
          "indexed": true,
          "internalType": "string",
          "name": "tokenURI",
          "type": "string"
        },
        {
          "indexed": false,
          "internalType": "uint256",
          "name": "timestamp",
          "type": "uint256"
        }
      ],
      "name": "Sale",
      "type": "event"
    },
    {
      "anonymous": false,
      "inputs": [
        {
          "indexed": true,
          "internalType": "address",
          "name": "from",
          "type": "address"
        },
        {
          "indexed": true,
          "internalType": "address",
          "name": "to",
          "type": "address"
        },
        {
          "indexed": true,
          "internalType": "uint256",
          "name": "tokenId",
          "type": "uint256"
        }
      ],
      "name": "Transfer",
      "type": "event"
    },
    {
      "inputs": [
        {
          "internalType": "address",
          "name": "to",
          "type": "address"
        },
        {
          "internalType": "uint256",
          "name": "tokenId",
          "type": "uint256"
        }
      ],
      "name": "approve",
      "outputs": [],
      "stateMutability": "nonpayable",
      "type": "function"
    },
    {
      "inputs": [
        {
          "internalType": "address",
          "name": "owner",
          "type": "address"
        }
      ],
      "name": "balanceOf",
      "outputs": [
        {
          "internalType": "uint256",
          "name": "",
          "type": "uint256"
        }
      ],
      "stateMutability": "view",
      "type": "function"
    },
    {
      "inputs": [],
      "name": "baseExtension",
      "outputs": [
        {
          "internalType": "string",
          "name": "",
          "type": "string"
        }
      ],
      "stateMutability": "view",
      "type": "function"
    },
    {
      "inputs": [],
      "name": "baseImage",
      "outputs": [
        {
          "internalType": "string",
          "name": "",
          "type": "string"
        }
      ],
      "stateMutability": "view",
      "type": "function"
    },
    {
      "inputs": [],
      "name": "cost",
      "outputs": [
        {
          "internalType": "uint256",
          "name": "",
          "type": "uint256"
        }
      ],
      "stateMutability": "view",
      "type": "function"
    },
    {
      "inputs": [],
      "name": "getAllNFTs",
      "outputs": [
        {
          "components": [
            {
              "internalType": "uint256",
              "name": "id",
              "type": "uint256"
            },
            {
              "internalType": "address",
              "name": "buyer",
              "type": "address"
            },
            {
              "internalType": "uint256",
              "name": "cost",
              "type": "uint256"
            },
            {
              "internalType": "string",
              "name": "imageURL",
              "type": "string"
            },
            {
              "internalType": "uint256",
              "name": "timestamp",
              "type": "uint256"
            }
          ],
          "internalType": "struct NFTMint.SaleStruct[]",
          "name": "",
          "type": "tuple[]"
        }
      ],
      "stateMutability": "view",
      "type": "function"
    },
    {
      "inputs": [
        {
          "internalType": "uint256",
          "name": "tokenId",
          "type": "uint256"
        }
      ],
      "name": "getAnNFTs",
      "outputs": [
        {
          "components": [
            {
              "internalType": "uint256",
              "name": "id",
              "type": "uint256"
            },
            {
              "internalType": "address",
              "name": "buyer",
              "type": "address"
            },
            {
              "internalType": "uint256",
              "name": "cost",
              "type": "uint256"
            },
            {
              "internalType": "string",
              "name": "imageURL",
              "type": "string"
            },
            {
              "internalType": "uint256",
              "name": "timestamp",
              "type": "uint256"
            }
          ],
          "internalType": "struct NFTMint.SaleStruct",
          "name": "",
          "type": "tuple"
        }
      ],
      "stateMutability": "view",
      "type": "function"
    },
    {
      "inputs": [
        {
          "internalType": "uint256",
          "name": "tokenId",
          "type": "uint256"
        }
      ],
      "name": "getApproved",
      "outputs": [
        {
          "internalType": "address",
          "name": "",
          "type": "address"
        }
      ],
      "stateMutability": "view",
      "type": "function"
    },
    {
      "inputs": [
        {
          "internalType": "address",
          "name": "owner",
          "type": "address"
        },
        {
          "internalType": "address",
          "name": "operator",
          "type": "address"
        }
      ],
      "name": "isApprovedForAll",
      "outputs": [
        {
          "internalType": "bool",
          "name": "",
          "type": "bool"
        }
      ],
      "stateMutability": "view",
      "type": "function"
    },
    {
      "inputs": [],
      "name": "maxSupply",
      "outputs": [
        {
          "internalType": "uint8",
          "name": "",
          "type": "uint8"
        }
      ],
      "stateMutability": "view",
      "type": "function"
    },
    {
      "inputs": [],
      "name": "name",
      "outputs": [
        {
          "internalType": "string",
          "name": "",
          "type": "string"
        }
      ],
      "stateMutability": "view",
      "type": "function"
    },
    {
      "inputs": [],
      "name": "owner",
      "outputs": [
        {
          "internalType": "address",
          "name": "",
          "type": "address"
        }
      ],
      "stateMutability": "view",
      "type": "function"
    },
    {
      "inputs": [
        {
          "internalType": "uint256",
          "name": "tokenId",
          "type": "uint256"
        }
      ],
      "name": "ownerOf",
      "outputs": [
        {
          "internalType": "address",
          "name": "",
          "type": "address"
        }
      ],
      "stateMutability": "view",
      "type": "function"
    },
    {
      "inputs": [],
      "name": "paused",
      "outputs": [
        {
          "internalType": "bool",
          "name": "",
          "type": "bool"
        }
      ],
      "stateMutability": "view",
      "type": "function"
    },
    {
      "inputs": [
        {
          "internalType": "address",
          "name": "to",
          "type": "address"
        },
        {
          "internalType": "uint256",
          "name": "amount",
          "type": "uint256"
        }
      ],
      "name": "payTo",
      "outputs": [],
      "stateMutability": "nonpayable",
      "type": "function"
    },
    {
      "inputs": [],
      "name": "payToMint",
      "outputs": [],
      "stateMutability": "payable",
      "type": "function"
    },
    {
      "inputs": [],
      "name": "renounceOwnership",
      "outputs": [],
      "stateMutability": "nonpayable",
      "type": "function"
    },
    {
      "inputs": [
        {
          "internalType": "address",
          "name": "from",
          "type": "address"
        },
        {
          "internalType": "address",
          "name": "to",
          "type": "address"
        },
        {
          "internalType": "uint256",
          "name": "tokenId",
          "type": "uint256"
        }
      ],
      "name": "safeTransferFrom",
      "outputs": [],
      "stateMutability": "nonpayable",
      "type": "function"
    },
    {
      "inputs": [
        {
          "internalType": "address",
          "name": "from",
          "type": "address"
        },
        {
          "internalType": "address",
          "name": "to",
          "type": "address"
        },
        {
          "internalType": "uint256",
          "name": "tokenId",
          "type": "uint256"
        },
        {
          "internalType": "bytes",
          "name": "data",
          "type": "bytes"
        }
      ],
      "name": "safeTransferFrom",
      "outputs": [],
      "stateMutability": "nonpayable",
      "type": "function"
    },
    {
      "inputs": [
        {
          "internalType": "address",
          "name": "operator",
          "type": "address"
        },
        {
          "internalType": "bool",
          "name": "approved",
          "type": "bool"
        }
      ],
      "name": "setApprovalForAll",
      "outputs": [],
      "stateMutability": "nonpayable",
      "type": "function"
    },
    {
      "inputs": [
        {
          "internalType": "string",
          "name": "_newBaseURI",
          "type": "string"
        }
      ],
      "name": "setBaseURI",
      "outputs": [],
      "stateMutability": "nonpayable",
      "type": "function"
    },
    {
      "inputs": [
        {
          "internalType": "bool",
          "name": "_state",
          "type": "bool"
        }
      ],
      "name": "setPause",
      "outputs": [],
      "stateMutability": "nonpayable",
      "type": "function"
    },
    {
      "inputs": [
        {
          "internalType": "bytes4",
          "name": "interfaceId",
          "type": "bytes4"
        }
      ],
      "name": "supportsInterface",
      "outputs": [
        {
          "internalType": "bool",
          "name": "",
          "type": "bool"
        }
      ],
      "stateMutability": "view",
      "type": "function"
    },
    {
      "inputs": [],
      "name": "symbol",
      "outputs": [
        {
          "internalType": "string",
          "name": "",
          "type": "string"
        }
      ],
      "stateMutability": "view",
      "type": "function"
    },
    {
      "inputs": [
        {
          "internalType": "uint256",
          "name": "index",
          "type": "uint256"
        }
      ],
      "name": "tokenByIndex",
      "outputs": [
        {
          "internalType": "uint256",
          "name": "",
          "type": "uint256"
        }
      ],
      "stateMutability": "view",
      "type": "function"
    },
    {
      "inputs": [
        {
          "internalType": "address",
          "name": "owner",
          "type": "address"
        },
        {
          "internalType": "uint256",
          "name": "index",
          "type": "uint256"
        }
      ],
      "name": "tokenOfOwnerByIndex",
      "outputs": [
        {
          "internalType": "uint256",
          "name": "",
          "type": "uint256"
        }
      ],
      "stateMutability": "view",
      "type": "function"
    },
    {
      "inputs": [
        {
          "internalType": "uint256",
          "name": "tokenId",
          "type": "uint256"
        }
      ],
      "name": "tokenURI",
      "outputs": [
        {
          "internalType": "string",
          "name": "",
          "type": "string"
        }
      ],
      "stateMutability": "view",
      "type": "function"
    },
    {
      "inputs": [],
      "name": "totalSupply",
      "outputs": [
        {
          "internalType": "uint256",
          "name": "",
          "type": "uint256"
        }
      ],
      "stateMutability": "view",
      "type": "function"
    },
    {
      "inputs": [
        {
          "internalType": "address",
          "name": "from",
          "type": "address"
        },
        {
          "internalType": "address",
          "name": "to",
          "type": "address"
        },
        {
          "internalType": "uint256",
          "name": "tokenId",
          "type": "uint256"
        }
      ],
      "name": "transferFrom",
      "outputs": [],
      "stateMutability": "nonpayable",
      "type": "function"
    },
    {
      "inputs": [
        {
          "internalType": "address",
          "name": "newOwner",
          "type": "address"
        }
      ],
      "name": "transferOwnership",
      "outputs": [],
      "stateMutability": "nonpayable",
      "type": "function"
    }
  ],
  "bytecode": "0x60a06040819052600060808190526200001b91600c91620001cd565b5060408051808201909152600580825264173539b7b760d91b60209092019182526200004a91600d91620001cd565b50655af3107a4000600e55600f805461ffff191660091790553480156200007057600080fd5b5060405162002a9438038062002a94833981016040819052620000939162000340565b825183908390620000ac906000906020850190620001cd565b508051620000c2906001906020840190620001cd565b505050620000df620000d9620000f360201b60201c565b620000f7565b620000ea8162000149565b5050506200040e565b3390565b600a80546001600160a01b038381166001600160a01b0319831681179093556040519116919082907f8be0079c531659141344cd1fd0a4f28419497f9722a3daafe3b4186f6b6457e090600090a35050565b620001536200016c565b80516200016890600b906020840190620001cd565b5050565b600a546001600160a01b03163314620001cb5760405162461bcd60e51b815260206004820181905260248201527f4f776e61626c653a2063616c6c6572206973206e6f7420746865206f776e6572604482015260640160405180910390fd5b565b828054620001db90620003d1565b90600052602060002090601f016020900481019282620001ff57600085556200024a565b82601f106200021a57805160ff19168380011785556200024a565b828001600101855582156200024a579182015b828111156200024a5782518255916020019190600101906200022d565b50620002589291506200025c565b5090565b5b808211156200025857600081556001016200025d565b634e487b7160e01b600052604160045260246000fd5b600082601f8301126200029b57600080fd5b81516001600160401b0380821115620002b857620002b862000273565b604051601f8301601f19908116603f01168101908282118183101715620002e357620002e362000273565b816040528381526020925086838588010111156200030057600080fd5b600091505b8382101562000324578582018301518183018401529082019062000305565b83821115620003365760008385830101525b9695505050505050565b6000806000606084860312156200035657600080fd5b83516001600160401b03808211156200036e57600080fd5b6200037c8783880162000289565b945060208601519150808211156200039357600080fd5b620003a18783880162000289565b93506040860151915080821115620003b857600080fd5b50620003c78682870162000289565b9150509250925092565b600181811c90821680620003e657607f821691505b602082108114156200040857634e487b7160e01b600052602260045260246000fd5b50919050565b612676806200041e6000396000f3fe6080604052600436106101cd5760003560e01c806368ef9d3c116100f7578063b88d4fde11610095578063d5abeb0111610064578063d5abeb0114610502578063e0391b091461052e578063e985e9c514610550578063f2fde38b1461059957600080fd5b8063b88d4fde1461048d578063bedb86fb146104ad578063c6682862146104cd578063c87b56dd146104e257600080fd5b80637bf08621116100d15780637bf086211461041a5780638da5cb5b1461043a57806395d89b4114610458578063a22cb4651461046d57600080fd5b806368ef9d3c146103b857806370a08231146103e5578063715018a61461040557600080fd5b806323b872dd1161016f578063509c71801161013e578063509c71801461035157806355f804b3146103595780635c975abb146103795780636352211e1461039857600080fd5b806323b872dd146102d15780632f745c59146102f157806342842e0e146103115780634f6ccce71461033157600080fd5b8063081812fc116101ab578063081812fc1461023e578063095ea7b31461027657806313faede61461029857806318160ddd146102bc57600080fd5b806301ffc9a7146101d257806303b0f38d1461020757806306fdde0314610229575b600080fd5b3480156101de57600080fd5b506101f26101ed366004611f9b565b6105b9565b60405190151581526020015b60405180910390f35b34801561021357600080fd5b5061021c6105e4565b6040516101fe9190612010565b34801561023557600080fd5b5061021c610672565b34801561024a57600080fd5b5061025e610259366004612023565b610704565b6040516001600160a01b0390911681526020016101fe565b34801561028257600080fd5b50610296610291366004612058565b61072b565b005b3480156102a457600080fd5b506102ae600e5481565b6040519081526020016101fe565b3480156102c857600080fd5b506008546102ae565b3480156102dd57600080fd5b506102966102ec366004612082565b610846565b3480156102fd57600080fd5b506102ae61030c366004612058565b610877565b34801561031d57600080fd5b5061029661032c366004612082565b61090d565b34801561033d57600080fd5b506102ae61034c366004612023565b610928565b6102966109bb565b34801561036557600080fd5b5061029661037436600461214a565b610c50565b34801561038557600080fd5b50600f546101f290610100900460ff1681565b3480156103a457600080fd5b5061025e6103b3366004612023565b610c6f565b3480156103c457600080fd5b506103d86103d3366004612023565b610ccf565b6040516101fe91906121e2565b3480156103f157600080fd5b506102ae6104003660046121f5565b610e26565b34801561041157600080fd5b50610296610eac565b34801561042657600080fd5b50610296610435366004612058565b610ec0565b34801561044657600080fd5b50600a546001600160a01b031661025e565b34801561046457600080fd5b5061021c610f28565b34801561047957600080fd5b50610296610488366004612220565b610f37565b34801561049957600080fd5b506102966104a8366004612253565b610f42565b3480156104b957600080fd5b506102966104c83660046122cf565b610f7a565b3480156104d957600080fd5b5061021c610f9c565b3480156104ee57600080fd5b5061021c6104fd366004612023565b610fa9565b34801561050e57600080fd5b50600f5461051c9060ff1681565b60405160ff90911681526020016101fe565b34801561053a57600080fd5b50610543611088565b6040516101fe91906122ea565b34801561055c57600080fd5b506101f261056b36600461234c565b6001600160a01b03918216600090815260056020908152604080832093909416825291909152205460ff1690565b3480156105a557600080fd5b506102966105b43660046121f5565b6111ae565b60006001600160e01b0319821663780e9d6360e01b14806105de57506105de82611227565b92915050565b600c80546105f190612376565b80601f016020809104026020016040519081016040528092919081815260200182805461061d90612376565b801561066a5780601f1061063f5761010080835404028352916020019161066a565b820191906000526020600020905b81548152906001019060200180831161064d57829003601f168201915b505050505081565b60606000805461068190612376565b80601f01602080910402602001604051908101604052809291908181526020018280546106ad90612376565b80156106fa5780601f106106cf576101008083540402835291602001916106fa565b820191906000526020600020905b8154815290600101906020018083116106dd57829003601f168201915b5050505050905090565b600061070f82611277565b506000908152600460205260409020546001600160a01b031690565b600061073682610c6f565b9050806001600160a01b0316836001600160a01b031614156107a95760405162461bcd60e51b815260206004820152602160248201527f4552433732313a20617070726f76616c20746f2063757272656e74206f776e656044820152603960f91b60648201526084015b60405180910390fd5b336001600160a01b03821614806107c557506107c5813361056b565b6108375760405162461bcd60e51b815260206004820152603d60248201527f4552433732313a20617070726f76652063616c6c6572206973206e6f7420746f60448201527f6b656e206f776e6572206f7220617070726f76656420666f7220616c6c00000060648201526084016107a0565b61084183836112d6565b505050565b6108503382611344565b61086c5760405162461bcd60e51b81526004016107a0906123b1565b6108418383836113c3565b600061088283610e26565b82106108e45760405162461bcd60e51b815260206004820152602b60248201527f455243373231456e756d657261626c653a206f776e657220696e646578206f7560448201526a74206f6620626f756e647360a81b60648201526084016107a0565b506001600160a01b03919091166000908152600660209081526040808320938352929052205490565b61084183838360405180602001604052806000815250610f42565b600061093360085490565b82106109965760405162461bcd60e51b815260206004820152602c60248201527f455243373231456e756d657261626c653a20676c6f62616c20696e646578206f60448201526b7574206f6620626f756e647360a01b60648201526084016107a0565b600882815481106109a9576109a96123fe565b90600052602060002001549050919050565b60006109c660085490565b600f54909150610100900460ff1615610a215760405162461bcd60e51b815260206004820152601760248201527f4e4654277320756e646572206d61696e74656e616e636500000000000000000060448201526064016107a0565b600f5460ff16811115610a765760405162461bcd60e51b815260206004820152601a60248201527f536f72727920416c6c204e4654277320617265206d696e74656400000000000060448201526064016107a0565b60003411610ac65760405162461bcd60e51b815260206004820152601960248201527f457468657220746f6f206c6f772066726f206d696e74696e670000000000000060448201526064016107a0565b600a546001600160a01b03163314610b1b57600e54341015610b1b5760405162461bcd60e51b815260206004820152600e60248201526d0283632b0b9b2902a37b8103ab8160951b60448201526064016107a0565b610b2f33610b2a83600161242a565b611534565b60106040518060a00160405280836001610b49919061242a565b8152336020820152346040820152606001610b6d610b6885600161242a565b61154e565b81524260209182015282546001808201855560009485529382902083516005909202019081558282015193810180546001600160a01b0319166001600160a01b03909516949094179093556040820151600284015560608201518051929392610bdc9260038501920190611eec565b5060809190910151600490910155610bf86104fd82600161242a565b604051610c059190612442565b6040805191829003822083835234602084015242838301529051909133917fb9508407a6eccb191d8da3286f4173697cf95604e9ea192fe5ab7c862b5221f69181900360600190a350565b610c58611598565b8051610c6b90600b906020840190611eec565b5050565b6000818152600260205260408120546001600160a01b0316806105de5760405162461bcd60e51b8152602060048201526018602482015277115490cdcc8c4e881a5b9d985b1a59081d1bdad95b88125160421b60448201526064016107a0565b610d0a6040518060a001604052806000815260200160006001600160a01b031681526020016000815260200160608152602001600081525090565b6010610d1760018461245e565b81548110610d2757610d276123fe565b90600052602060002090600502016040518060a0016040529081600082015481526020016001820160009054906101000a90046001600160a01b03166001600160a01b03166001600160a01b0316815260200160028201548152602001600382018054610d9390612376565b80601f0160208091040260200160405190810160405280929190818152602001828054610dbf90612376565b8015610e0c5780601f10610de157610100808354040283529160200191610e0c565b820191906000526020600020905b815481529060010190602001808311610def57829003601f168201915b505050505081526020016004820154815250509050919050565b60006001600160a01b038216610e905760405162461bcd60e51b815260206004820152602960248201527f4552433732313a2061646472657373207a65726f206973206e6f7420612076616044820152683634b21037bbb732b960b91b60648201526084016107a0565b506001600160a01b031660009081526003602052604090205490565b610eb4611598565b610ebe60006115f2565b565b610ec8611598565b6000826001600160a01b03168260405160006040518083038185875af1925050503d8060008114610f15576040519150601f19603f3d011682016040523d82523d6000602084013e610f1a565b606091505b505090508061084157600080fd5b60606001805461068190612376565b610c6b338383611644565b610f4c3383611344565b610f685760405162461bcd60e51b81526004016107a0906123b1565b610f7484848484611713565b50505050565b610f82611598565b600f80549115156101000261ff0019909216919091179055565b600d80546105f190612376565b6000818152600260205260409020546060906001600160a01b03166110295760405162461bcd60e51b815260206004820152603060248201527f4552433732314d657461446174613a2055524920717565727920666f72206e6f60448201526f3732bc34b9ba30b731b2903a37b5b2b760811b60648201526084016107a0565b6000611033611746565b905060008151116110535760405180602001604052806000815250611081565b8061105d84611755565b600d60405160200161107193929190612475565b6040516020818303038152906040525b9392505050565b60606010805480602002602001604051908101604052809291908181526020016000905b828210156111a55760008481526020908190206040805160a081018252600586029092018054835260018101546001600160a01b03169383019390935260028301549082015260038201805491929160608401919061110a90612376565b80601f016020809104026020016040519081016040528092919081815260200182805461113690612376565b80156111835780601f1061115857610100808354040283529160200191611183565b820191906000526020600020905b81548152906001019060200180831161116657829003601f168201915b50505050508152602001600482015481525050815260200190600101906110ac565b50505050905090565b6111b6611598565b6001600160a01b03811661121b5760405162461bcd60e51b815260206004820152602660248201527f4f776e61626c653a206e6577206f776e657220697320746865207a65726f206160448201526564647265737360d01b60648201526084016107a0565b611224816115f2565b50565b60006001600160e01b031982166380ac58cd60e01b148061125857506001600160e01b03198216635b5e139f60e01b145b806105de57506301ffc9a760e01b6001600160e01b03198316146105de565b6000818152600260205260409020546001600160a01b03166112245760405162461bcd60e51b8152602060048201526018602482015277115490cdcc8c4e881a5b9d985b1a59081d1bdad95b88125160421b60448201526064016107a0565b600081815260046020526040902080546001600160a01b0319166001600160a01b038416908117909155819061130b82610c6f565b6001600160a01b03167f8c5be1e5ebec7d5bd14f71427d1e84f3dd0314c0f7b2291e5b200ac8c7c3b92560405160405180910390a45050565b60008061135083610c6f565b9050806001600160a01b0316846001600160a01b0316148061139757506001600160a01b0380821660009081526005602090815260408083209388168352929052205460ff165b806113bb5750836001600160a01b03166113b084610704565b6001600160a01b0316145b949350505050565b826001600160a01b03166113d682610c6f565b6001600160a01b0316146113fc5760405162461bcd60e51b81526004016107a090612539565b6001600160a01b03821661145e5760405162461bcd60e51b8152602060048201526024808201527f4552433732313a207472616e7366657220746f20746865207a65726f206164646044820152637265737360e01b60648201526084016107a0565b61146b83838360016117f2565b826001600160a01b031661147e82610c6f565b6001600160a01b0316146114a45760405162461bcd60e51b81526004016107a090612539565b600081815260046020908152604080832080546001600160a01b03199081169091556001600160a01b0387811680865260038552838620805460001901905590871680865283862080546001019055868652600290945282852080549092168417909155905184937fddf252ad1be2c89b69c2b068fc378daa952ba7f163c4a11628f55a4df523b3ef91a4505050565b610c6b828260405180602001604052806000815250611932565b6060600061155a611746565b9050600081511161157a5760405180602001604052806000815250611081565b8061158484611755565b600c60405160200161107193929190612475565b600a546001600160a01b03163314610ebe5760405162461bcd60e51b815260206004820181905260248201527f4f776e61626c653a2063616c6c6572206973206e6f7420746865206f776e657260448201526064016107a0565b600a80546001600160a01b038381166001600160a01b0319831681179093556040519116919082907f8be0079c531659141344cd1fd0a4f28419497f9722a3daafe3b4186f6b6457e090600090a35050565b816001600160a01b0316836001600160a01b031614156116a65760405162461bcd60e51b815260206004820152601960248201527f4552433732313a20617070726f766520746f2063616c6c65720000000000000060448201526064016107a0565b6001600160a01b03838116600081815260056020908152604080832094871680845294825291829020805460ff191686151590811790915591519182527f17307eab39ab6107e8899845ad3d59bd9653f200f220920489ca2b5937696c31910160405180910390a3505050565b61171e8484846113c3565b61172a84848484611965565b610f745760405162461bcd60e51b81526004016107a09061257e565b6060600b805461068190612376565b6060600061176283611a63565b600101905060008167ffffffffffffffff811115611782576117826120be565b6040519080825280601f01601f1916602001820160405280156117ac576020820181803683370190505b5090508181016020015b600019016f181899199a1a9b1b9c1cb0b131b232b360811b600a86061a8153600a85049450846117e5576117ea565b6117b6565b509392505050565b6117fe84848484611b3b565b600181111561186d5760405162461bcd60e51b815260206004820152603560248201527f455243373231456e756d657261626c653a20636f6e7365637574697665207472604482015274185b9cd9995c9cc81b9bdd081cdd5c1c1bdc9d1959605a1b60648201526084016107a0565b816001600160a01b0385166118c9576118c481600880546000838152600960205260408120829055600182018355919091527ff3f7a9fe364faab93b216da50a3214154f22a0a2b415b23a84c8169e8b636ee30155565b6118ec565b836001600160a01b0316856001600160a01b0316146118ec576118ec8582611bc3565b6001600160a01b0384166119085761190381611c60565b61192b565b846001600160a01b0316846001600160a01b03161461192b5761192b8482611d0f565b5050505050565b61193c8383611d53565b6119496000848484611965565b6108415760405162461bcd60e51b81526004016107a09061257e565b60006001600160a01b0384163b15611a5857604051630a85bd0160e11b81526001600160a01b0385169063150b7a02906119a99033908990889088906004016125d0565b6020604051808303816000875af19250505080156119e4575060408051601f3d908101601f191682019092526119e19181019061260d565b60015b611a3e573d808015611a12576040519150601f19603f3d011682016040523d82523d6000602084013e611a17565b606091505b508051611a365760405162461bcd60e51b81526004016107a09061257e565b805181602001fd5b6001600160e01b031916630a85bd0160e11b1490506113bb565b506001949350505050565b60008072184f03e93ff9f4daa797ed6e38ed64bf6a1f0160401b8310611aa25772184f03e93ff9f4daa797ed6e38ed64bf6a1f0160401b830492506040015b6d04ee2d6d415b85acef81000000008310611ace576d04ee2d6d415b85acef8100000000830492506020015b662386f26fc100008310611aec57662386f26fc10000830492506010015b6305f5e1008310611b04576305f5e100830492506008015b6127108310611b1857612710830492506004015b60648310611b2a576064830492506002015b600a83106105de5760010192915050565b6001811115610f74576001600160a01b03841615611b81576001600160a01b03841660009081526003602052604081208054839290611b7b90849061245e565b90915550505b6001600160a01b03831615610f74576001600160a01b03831660009081526003602052604081208054839290611bb890849061242a565b909155505050505050565b60006001611bd084610e26565b611bda919061245e565b600083815260076020526040902054909150808214611c2d576001600160a01b03841660009081526006602090815260408083208584528252808320548484528184208190558352600790915290208190555b5060009182526007602090815260408084208490556001600160a01b039094168352600681528383209183525290812055565b600854600090611c729060019061245e565b60008381526009602052604081205460088054939450909284908110611c9a57611c9a6123fe565b906000526020600020015490508060088381548110611cbb57611cbb6123fe565b6000918252602080832090910192909255828152600990915260408082208490558582528120556008805480611cf357611cf361262a565b6001900381819060005260206000200160009055905550505050565b6000611d1a83610e26565b6001600160a01b039093166000908152600660209081526040808320868452825280832085905593825260079052919091209190915550565b6001600160a01b038216611da95760405162461bcd60e51b815260206004820181905260248201527f4552433732313a206d696e7420746f20746865207a65726f206164647265737360448201526064016107a0565b6000818152600260205260409020546001600160a01b031615611e0e5760405162461bcd60e51b815260206004820152601c60248201527f4552433732313a20746f6b656e20616c7265616479206d696e7465640000000060448201526064016107a0565b611e1c6000838360016117f2565b6000818152600260205260409020546001600160a01b031615611e815760405162461bcd60e51b815260206004820152601c60248201527f4552433732313a20746f6b656e20616c7265616479206d696e7465640000000060448201526064016107a0565b6001600160a01b038216600081815260036020908152604080832080546001019055848352600290915280822080546001600160a01b0319168417905551839291907fddf252ad1be2c89b69c2b068fc378daa952ba7f163c4a11628f55a4df523b3ef908290a45050565b828054611ef890612376565b90600052602060002090601f016020900481019282611f1a5760008555611f60565b82601f10611f3357805160ff1916838001178555611f60565b82800160010185558215611f60579182015b82811115611f60578251825591602001919060010190611f45565b50611f6c929150611f70565b5090565b5b80821115611f6c5760008155600101611f71565b6001600160e01b03198116811461122457600080fd5b600060208284031215611fad57600080fd5b813561108181611f85565b60005b83811015611fd3578181015183820152602001611fbb565b83811115610f745750506000910152565b60008151808452611ffc816020860160208601611fb8565b601f01601f19169290920160200192915050565b6020815260006110816020830184611fe4565b60006020828403121561203557600080fd5b5035919050565b80356001600160a01b038116811461205357600080fd5b919050565b6000806040838503121561206b57600080fd5b6120748361203c565b946020939093013593505050565b60008060006060848603121561209757600080fd5b6120a08461203c565b92506120ae6020850161203c565b9150604084013590509250925092565b634e487b7160e01b600052604160045260246000fd5b600067ffffffffffffffff808411156120ef576120ef6120be565b604051601f8501601f19908116603f01168101908282118183101715612117576121176120be565b8160405280935085815286868601111561213057600080fd5b858560208301376000602087830101525050509392505050565b60006020828403121561215c57600080fd5b813567ffffffffffffffff81111561217357600080fd5b8201601f8101841361218457600080fd5b6113bb848235602084016120d4565b8051825260018060a01b036020820151166020830152604081015160408301526000606082015160a060608501526121ce60a0850182611fe4565b608093840151949093019390935250919050565b6020815260006110816020830184612193565b60006020828403121561220757600080fd5b6110818261203c565b8035801515811461205357600080fd5b6000806040838503121561223357600080fd5b61223c8361203c565b915061224a60208401612210565b90509250929050565b6000806000806080858703121561226957600080fd5b6122728561203c565b93506122806020860161203c565b925060408501359150606085013567ffffffffffffffff8111156122a357600080fd5b8501601f810187136122b457600080fd5b6122c3878235602084016120d4565b91505092959194509250565b6000602082840312156122e157600080fd5b61108182612210565b6000602080830181845280855180835260408601915060408160051b870101925083870160005b8281101561233f57603f1988860301845261232d858351612193565b94509285019290850190600101612311565b5092979650505050505050565b6000806040838503121561235f57600080fd5b6123688361203c565b915061224a6020840161203c565b600181811c9082168061238a57607f821691505b602082108114156123ab57634e487b7160e01b600052602260045260246000fd5b50919050565b6020808252602d908201527f4552433732313a2063616c6c6572206973206e6f7420746f6b656e206f776e6560408201526c1c881bdc88185c1c1c9bdd9959609a1b606082015260800190565b634e487b7160e01b600052603260045260246000fd5b634e487b7160e01b600052601160045260246000fd5b6000821982111561243d5761243d612414565b500190565b60008251612454818460208701611fb8565b9190910192915050565b60008282101561247057612470612414565b500390565b6000845160206124888285838a01611fb8565b85519184019161249b8184848a01611fb8565b8554920191600090600181811c90808316806124b857607f831692505b8583108114156124d657634e487b7160e01b85526022600452602485fd5b8080156124ea57600181146124fb57612528565b60ff19851688528388019550612528565b60008b81526020902060005b858110156125205781548a820152908401908801612507565b505083880195505b50939b9a5050505050505050505050565b60208082526025908201527f4552433732313a207472616e736665722066726f6d20696e636f72726563742060408201526437bbb732b960d91b606082015260800190565b60208082526032908201527f4552433732313a207472616e7366657220746f206e6f6e20455243373231526560408201527131b2b4bb32b91034b6b83632b6b2b73a32b960711b606082015260800190565b6001600160a01b038581168252841660208201526040810183905260806060820181905260009061260390830184611fe4565b9695505050505050565b60006020828403121561261f57600080fd5b815161108181611f85565b634e487b7160e01b600052603160045260246000fdfea26469706673582212208e6e322b8f2c5eff73ad8693ab3af55f231d387f57aff5fa63817f15cdb395f564736f6c634300080b0033",
  "linkReferences": {},
  "deployedLinkReferences": {}
}